:10100000000004204919000071190000814C000003
:101010007519000077190000791900000000000020
:101020000000000000000000000000007B1900002C
:101030007D190000000000007F19000081190000E8
:10104000CD5B0000C1A10000DD5B00003D7E000023
:10105000BD7E0000831900004D550000831900007B
:101060008319000083190000831900008319000010
:101070008319000083190000831900008319000000
:10108000831900003519000083190000831900003E
:1010900083190000831900008319000083190000E0
:1010A0008319000083190000AD8700003D8800000F
:1010B00083190000831900000000000000000000F8
:1010C00083190000831900008319000083190000B0
:1010D000831900008319000083190000F56C0000DB
:1010E000831900008319000083190000000000002C
:1010F00000000000831900000000000083190000B8
:1011000000000000000000000000000000000000DF
:1011100000000000000000000000000000000000CF
:1011200000000000000000000000000000000000BF
:1011300000000000000000000000000000000000AF
:10114000000000000000000000000000000000009F
:10115000000000000000000000000000000000008F
:10116000000000000000000000000000000000007F
:10117000000000000000000000000000000000006F
:10118000000000000000000000000000000000005F
:10119000000000000000000000000000000000004F
:1011A000000000000000000000000000000000003F
:1011B000000000000000000000000000000000002F
:1011C000000000000000000000000000000000001F
:1011D000000000000000000000000000000000000F
:1011E00000000000000000000000000000000000FF
:1011F00000000000000000000000000000000000EF
:101200000348044B834202D0034B03B11847704795
:10121000F8000020F8000020000000000548064B00
:101220001B1AD90F01EBA301491002D0034B03B1E4
:1012300018477047F8000020F80000200000000068
:1012400010B5064C237843B9FFF7DAFF044B13B10E
:101250000448AFF300800123237010BDB8010020C3
:101260000000000068AC010008B5054B1BB1054942
:101270000548AFF30080BDE80840FFF7CFBF00BFCF
:1012800000000000BC01002068AC0100A3F5803A1A
:10129000704700BF174B002B08BF134B9D46FFF74D
:1012A000F5FF00218B460F461348144A121A14F01A
:1012B000EFFD0E4B002B00D098470D4B002B00D0BC
:1012C00098470020002104000D000D48002802D09E
:1012D0000C48AFF3008014F08FFC2000290013F0BD
:1012E00063FF14F077FC00BF00000800000000005E
:1012F0000000000000000420B8010020CC0E0020F7
:10130000000000000000000030B48D688468C268EE
:10131000CB68A54293412CBF0120002030BC704710
:1013200038B52E4B1D7815B90025284638BD044622
:101330000028F9D02A4800F0F9FA2A4B1A685B68AD
:101340008018294AD2E9001243F10003884273EB66
:10135000020203D210F1807043F10003D4E90212BB
:10136000884293410AD2B2F1FF3F08BFB1F1FF3F7B
:10137000DAD01E48214603F037FFD6E7002003F0FD
:101380006DFC23692BB94FF0FF324FF0FF33C4E9F6
:101390000223002003F06AFCD4E9053098470020BE
:1013A00003F05CFC2369A3B1D4E90212B2F1FF3F60
:1013B00008BFB1F1FF3F0CD05B1842F10002C4E955
:1013C0000232002003F052FC0848214603F00CFFD3
:1013D000ABE7002003F04AFCA6E700BF4002002074
:1013E000200000203802002030020020A07E0100F2
:1013F0002DE9F04F83B0814600F06CFA40B17C4A91
:10140000D2E9003113F1807341F10001C2E90031EA
:101410000021484600F07AFA764D30B12B6823B1AE
:101420002868FFF77DFF00232B600121484600F06C
:101430006DFA002840F0C4806F4801A903F05EFDFA
:1014400000283AD06C4C4FF0FF3A4FF0FF3B09E0D8
:1014500033B301A9204603F083FD01A9204603F020
:101460004DFD50B30378012B11D0022BF0D1634E08
:10147000304603F0CDFE30B1C0E902AB304603F098
:10148000C7FE0028F8D15E4B01221A70E1E72B68F5
:101490004168994200F09180584803F0C3FED8E7B4
:1014A0004168D1E90223B3F1FF3F08BFB2F1FF3F2A
:1014B000CFD0524803F098FECBE7504E514FDFF8A3
:1014C0003081304603F0AAFE002853D0D0E9022331
:1014D000B3F1FF3F08BFB2F1FF3F6AD0296891B175
:1014E0002968D1E9020182428B4159D22B68D3E9A4
:1014F0000223B3F1FF3F08BFB2F1FF3F03D02968D9
:10150000304603F071FE304603F082FE0446384652
:10151000D4E902AB00F00AFA3B4BD8F80410D3E947
:1015200000E2D8F80030C31841F10001734571EBB7
:10153000020C03D213F1807341F10001BAEB0303F3
:101540006BEB010B012B7BF1000B1BDBB3F5350FB4
:1015500029D252464FF496030021384600F030F964
:10156000C0B10D2812D0002330462B6003F056FE88
:101570000028ABD12B689BB9484603B0BDE8F04FBB
:1015800000F0F0B80021384600F0B4F92046FFF72B
:10159000C7FEE8E72B6813B9484600F0DFF82C6077
:1015A00003B0BDE8F08F384600F0C0F9174A024496
:1015B000D0E7304603F02CFE83E700232B6048E79A
:1015C000104800F0B3F90A4B1A685B6880180E4A9D
:1015D000D2E9004143F10003A04273EB010103D2C1
:1015E00010F1807043F10003C2E9000324E700BF5B
:1015F00038020020440200200C000020A07E0100E0
:10160000400200202000002030020020FFFFB40034
:1016100010B5134B13491C68134882B00823582295
:10162000019403F011FC044610B1204602B010BD35
:101630000E4A0F4801A900F021F804460028F4D111
:101640000B48012100F03CF901231946094A0848DA
:1016500000F08CF8084B012220461A7002B010BD31
:10166000CC7E0100D80100200C000020F113000006
:1016700020000020FFFF7F004002002010B52E4C0C
:10168000437944F823202D4C04EBC3031B79002B32
:1016900040D103680A88C3F8082590F904308A7895
:1016A000002B24DB03F16043520103F56143D2B206
:1016B00083F8002390F90430002B09DB20494FEA1E
:1016C000531C012203F01F0302FA03F341F82C30EC
:1016D00043791C4A44F8330004EBC30153884FF0AC
:1016E000010C022B81F804C009D8002010BD164956
:1016F00003F00F0352011944D2B20A76DAE7134B12
:1017000013481449C01AC008000440F0030000F058
:1017100037FCEAE70B4B5B88012B01D8082010BD92
:101720000A4B0B480C49C01AC008000440F00200E4
:1017300000F026FCF2E700BF500200204802002023
:1017400000E100E01C010020FCEC00E0D8AC01004E
:1017500020AD0100F47E0100D07E0100036801226B
:101760001A607047036801225A60704770B40568B8
:101770004FF480348C40C5F80843056801F1500CE3
:10178000C5F848434FEA8C0C05681FFA8CFC00260C
:1017900045F80C6083B055F80C500195019D056823
:1017A00001F5A87122F07F4245F821200268C2F8B5
:1017B000444313B10368C3F8044303B070BC7047DB
:1017C0002DE9F0474FF48037994603688F40C3F8FE
:1017D00048730368C3F80873036801F150060D46A7
:1017E00003EB810122F07F48D3F80435D1F840257E
:1017F000C1F84035B600B6B2D21A03684FF0000AFD
:1018000043F806A082B09B59009322F07F42012A40
:10181000009B044645D02368D3F80465C3F844739D
:10182000A8EB060323F07F43012B05F5A87527D00D
:10183000226842F825802168D1F80405A8EB00024F
:10184000C9F1FF13013A03F57F4322F07F4293422F
:1018500012D342B1C1F8447323680020C3F8047363
:1018600002B0BDE8F08708F1010341F82530216896
:10187000D1F804359842EDD00D2002B0BDE8F087D4
:10188000236808F1010243F825200C4B4FF48060D7
:1018900043F0010398472168D1F804359E42D9D01E
:1018A000EAE7064B4FF4806043F001039847236852
:1018B00043F806A09B590193019BACE7107F010000
:1018C00002680223C2F8443311B10268C2F804333B
:1018D000704700BF0368D3F8040100B970470022C5
:1018E00082B0C3F80421D3F804310193019B012095
:1018F00002B0704702684FF4803303FA01F1C2F876
:1019000048130368C3F80813704700BF50318900BB
:10191000036889B2585800B9704700225A5082B003
:101920005B580193019B012002B070470368D3F814
:1019300004057047024A034B10681B68184700BF34
:1019400048020020500200200649074A074B9B1A14
:1019500003DD043BC858D050FBDC06F02BFBFFF73F
:1019600099FC000088B5010008000020B8010020A3
:10197000FEE7FEE7FEE7FEE7FEE7FEE7FEE7FEE73F
:10198000FEE7FEE770B5304D84B005F5836003F0E7
:1019900027FB05F2144003F023FBAB68DAB2D11C3D
:1019A00005EB810015F821104C0710D501F0040457
:1019B000017801F00301012938D0022903F1020660
:1019C00002F1030126D005EB8100002CF0D105EBDC
:1019D00082015A1CC8680190D2B205EB820200F065
:1019E00003010129D66803F1020425D002290FD191
:1019F000BDF80630C3F389130333360C04EB9304AC
:101A0000124803F0F9FA00B1AC60304604B070BD82
:101A10000026F5E7438806EB9313DAB2D11C05EBF9
:101A2000810015F8211001F00404CEE7028802338A
:101A3000C2F383121344F0E7BDF80430C3F38313F9
:101A4000360C1C44DCE700BF54020020680600206E
:101A5000704700BF2DE9F047974CD4E901239A4223
:101A600084B061D00023C4F81834BFF34F8FA56849
:101A7000EAB2D31C04EB830014F82330590718D5BD
:101A80006668037803F00303012B46D0022B03D1D1
:101A90004388023505EB9315EAB2D4F81814D31C29
:101AA00004EB830029B9AE423DD914F823305B071B
:101AB000E7D404EB82026B1CDBB2D26804EB830335
:101AC00002F00301DB680229CDE9012305F10206DA
:101AD0002ED0012900F0A280D4F810543DB12B681B
:101AE00028469B689847EB681D68002DF7D1734B1B
:101AF0005B88012B09D97248724B7349C01AC00820
:101B0000000440F0020000F03BFAD4E90130C01AB2
:101B100018BF012004B0BDE8F08703880235C3F385
:101B200083131D44B8E7A660002004B0BDE8F08729
:101B3000BDF8063065489DF80470C3F389194D4619
:101B4000502D28BF502565F38F1305F10801ADF81E
:101B5000063003F099FAC7F3C20780460028BBD0CD
:101B600003F0DEFA0023082201A9404603F008FB37
:101B7000F343DBB20133B5EB830F4FEA830A40F244
:101B80008C80F1B2A5EB0A05033104EB81015246CA
:101B900040460823EDB203F0F3FA4D490AF1080379
:101BA0002A46404603F0ECFA09F1030906EB9906D0
:101BB000D4F81834D4F81054002B78D105B3DFF8DA
:101BC00014A14FF00709EB685A79B2B1BDF80820AB
:101BD00019795AF8220001EB410109FA01F2052FA7
:101BE00002EA000208BF0327CA40974205D82B68C3
:101BF00028461B6841469847EB681D68002DE2D1D6
:101C0000404603F091FA002003F028F8D4F8183485
:101C100003B9A660002003F029F876E7BDF8047048
:101C20002A48C7F38313062B28BF062363F38917BB
:101C3000023303F00F018900ADF8047003F024FAB9
:101C4000C7F3C207804600283FF446AF03F068FAA6
:101C50000023082201A9404603F092FABDF804309F
:101C600013F4707FA4D06FF00109A9EB05090825D2
:101C7000F1B203312B46042204EB8101404603F00C
:101C80007FFABDF804300136C3F3831309EB060273
:101C9000934205F10405EBD88AE7F1B203312A46F5
:101CA00004EB81010823404603F06AFA7CE74046D2
:101CB00003F03AFA29E700BF54020020180100207F
:101CC00018AD0100D8AC0100187F010098AD0100EB
:101CD00060020020580100202DE9F047DFF8ECA059
:101CE0000546002098460F46914602F0B7FFDAF805
:101CF0000830DAF8046003F580739B1B052B61D86C
:101D00000AF21C440121204603F044F9FFF73AFE91
:101D10000146204603F03EF9DAE9012303F580731A
:101D20009B1A052BEED9D3B2033340F205114AF8C2
:101D3000231006320020CAF8042002F097FFB31CDB
:101D4000DBB20AEB8303089AC3F80C90F31CDBB2F6
:101D50000AEB83031C48C3F80C80331DDBB20AEB8B
:101D600083030021DA60731DDBB20AEB8303099A57
:101D7000DA6003F005F980F310031B0443EA15430E
:101D8000ED00721C05F0380545F48075D2B2F6B24C
:101D900045F001050AEB8202033645EA8725D36048
:101DA0004AF826509AF800301BB9FFF751FEBDE8FB
:101DB000F087FFF74FFE0028F7D0FFF74BFE002813
:101DC000F7D1F2E73246AEE7700600205402002059
:101DD0002DE9F047DFF8DCA00546002098460F46C5
:101DE000914602F03BFFDAF80830DAF8046003F5B8
:101DF00080739B1B042B58D80AF21C4401212046F7
:101E000003F0C8F8FFF7BEFD0146204603F0C2F814
:101E1000DAE9012303F580739B1A042BEED9D3B2C0
:101E20000333C5214AF8231005320020CAF80420E4
:101E300002F01CFFB31CDBB20AEB8303089AC3F861
:101E40000C90F31CDBB20AEB83030021C3F80C8077
:101E5000331DDBB20AEB83031548DA6003F090F818
:101E600080F31002711CEB0003F03803C9B2F6B224
:101E7000120443F0C1030AEB8101033643EA8723CE
:101E800042EA1542CA604AF826309AF800301BB977
:101E9000FFF7DEFDBDE8F087FFF7DCFD0028F7D097
:101EA000FFF7D8FD0028F7D1F2E73246B7E700BFC9
:101EB00070060020540200202DE9F843DFF8BC90A2
:101EC000054600200F46904602F0C8FED9E901639E
:101ED00003F580739B1B022B4CD809F21C44012193
:101EE000204603F057F8FFF74DFD0146204603F06A
:101EF00051F8D9E9012303F580739B1A022BEED91F
:101F0000D3B20333452149F8231003320020C9F826
:101F1000042002F0ABFEB31CDBB209EB830300210B
:101F20001548C3F80C8003F02BF880F31002711CE5
:101F3000EB0003F03803C9B2F6B2120443F04103D8
:101F400009EB8101033643EA872342EA1542CA605E
:101F500049F8263099F800301BB9FFF779FDBDE844
:101F6000F883FFF777FD0028F7D0FFF773FD00280F
:101F7000F7D1F2E73246C3E7700600205402002092
:101F80002DE9F041294C06460020884602F066FE05
:101F9000D4E9017303F58073DB1B012B44D804F2F1
:101FA0001C450121284602F0F5FFFFF7EBFC014636
:101FB000284602F0EFFFD4E9012303F580739B1A52
:101FC000012BEED9D3B20333052144F8231002329A
:101FD0000020626002F04AFE0021154802F0D0FFA6
:101FE00080F31002791CF30003F03803C9B2FFB28A
:101FF000120443F0010304EB8101033743EA882311
:1020000042EA1642CA6044F8273023781BB9FFF72A
:102010001FFDBDE8F081FFF71DFD0028F7D0FFF799
:1020200019FD0028F7D1F2E73A46CBE75402002029
:102030007006002038B5084BD3F8104401251D70F8
:102040004CB1E3685D71236820465B689847E3689C
:102050001C68002CF5D138BD54020020064B1A5CD8
:102060001F2A86BF054902F01F024FF0A04101233D
:102070009340C1F80C357047507F010000030050B9
:10208000064B1A5C1F2A86BF054902F01F024FF05B
:10209000A04101239340C1F808357047507F0100EB
:1020A000000300500A4B185C1F288ABF09494FF0F3
:1020B000A04100F01F00D1F804350122824022EA3D
:1020C00003001340C1F80805C1F80C35704700BF84
:1020D000507F010000030050C30706D4830742BFAE
:1020E0002F4B0C22C3F81827704710B44FF08043D1
:1020F000D3F84036D90723D44FF0A0432849032210
:102100004024C3F81827C3F82027C1F82427C3F8B0
:102110003027C3F808454FF400724FF48074C3F8B9
:102120000845C1F808254FF48052C3F808258207F6
:1021300003D51B4B0C22C3F818275DF8044B7047DE
:102140004FF01023D3F8043303F00703072BD3D148
:10215000144A0123C2F80435D2F80034002BFBD016
:102160004FF010210020D1F804330E4C23F0070368
:1021700043F00403C1F80433C2F80405D4F8003472
:10218000002BFBD0BFF34F8F0749084BCA6802F4FE
:10219000E0621343CB60BFF34F8F00BFFDE700BF8A
:1021A0000003005000E0014000ED00E00400FA05EB
:1021B00000B585B00346002101AA44F20100CDE933
:1021C0000111039300F004F805B05DF804FB00BFB3
:1021D00070B572B6FFF72EFFFFF73CFC0028FBD16D
:1021E000194D6B88FBB9194BD3F8F030DB070DD5CF
:1021F000174C184E00BE6B88012B07D9A01BC008D6
:102200000004154940F00200FFF7BAFEBFF34F8FFC
:102210000E49124BCA6802F4E0621343CB60BFF36D
:102220004F8F00BFFDE70A4C0A4E0D49A01BC008A6
:10223000000440F00100FFF7A3FE044BD3F8F03098
:10224000DA07D8D5D6E700BF1801002000ED00E07E
:1022500018AD0100D8AC0100607F01000400FA0550
:10226000547F010030B583B0124801A902F004FE8A
:10227000F0B1114D044628682060002002F0EEFC09
:102280000E4B0F481B88026801339B1AE380002124
:1022900002F076FEA080002002F0E8FC01A90548CB
:1022A00002F01CFE074B1B6801460BB128469847FD
:1022B00003B030BD30000020707F0100FC0700201B
:1022C000000800205007002030B50378052B83B0AC
:1022D000054625D0002B2AD12B4B1C683CB1236826
:1022E00068889B68984723685C68002CF7D1274C66
:1022F000002002F0B3FC236813B9254B6A881A80CA
:102300000121224802F046FE002002F0AFFC214BE2
:102310001B6813B1012128469847236803B030BDDC
:102320001D4BD3F88424D3F88034DBB233B31B487D
:1023300001A902F0A1FD04460028EFD02B6823601C
:10234000002002F08BFC124B10481B8802680133FE
:102350009B1AE380002102F013FEA080002002F00F
:1023600085FC01A90D4802F0B9FD0A4B1B68014626
:10237000002BD3D02846984703B030BD084BD2B2CB
:10238000052A08BF1D46D2E760070020000800208C
:10239000FC070020500700200070024030000020A1
:1023A000987F010070B5012882B006D0022804464B
:1023B0002AD0002831D002B070BD2B4801A902F00C
:1023C0005BFD04460028F6D0284D286820600020D8
:1023D00002F044FC264B27481B88026801339B1AF5
:1023E000E380002102F0CCFDA080002002F03EFC42
:1023F00001A91D4802F072FD1F4B1B680146002B0E
:10240000D9D028469847D6E7174801A902F034FDED
:1024100004460028CFD0194DD7E7134801A902F090
:102420002BFD05460028C6D0154E30682860204692
:1024300002F014FC0E4B0F481B88026801339B1AF4
:10244000EB80214602F09CFDA880204602F00EFCA5
:1024500001A9054802F042FD074B1B680146002B0D
:10246000A9D030469847A6E7300000208C7F0100B5
:10247000FC0700200008002050070020887F010092
:10248000907F01002DE9F04F89B0002504460E46EB
:1024900001929846049500E0013562680123D2F864
:1024A00004902146002204A8C8470028F4D18DF8E2
:1024B0000E00069085B3814682460BE09DF80E30F3
:1024C0006768023BD7F804B0D8479DF80E309A44AD
:1024D000554521D960680123D0F804B00DF10E02F2
:1024E000214606A8D84760680123D0F804B00DF152
:1024F0000F02214606A8D8479DF80F30B3424FF08F
:102500000002214606A8D9D1019B4B4508D009F10C
:1025100001095FFA89F9D1E7052009B0BDE8F08F1C
:10252000129A9DF80E30136088F8003088F8016028
:102530006268023B556808F10202A847002009B012
:10254000BDE8F08F2DE9F047434982B005460823E6
:1025500042484FF4847202F077FC002868D140486A
:1025600004F024FC044618B1204602B0BDE8F08710
:102570003C493D4A3D4B08701060014648221860B6
:102580003B4813F085FC3B484822214613F080FC71
:10259000002D57D095E80700374B83E8070000204F
:1025A00002F00EFF002848D1344F3B7A002B50D068
:1025B00007F109064FF00309D7F804802D4C2C4D84
:1025C00019FB03697378B3B1B27803EB020CB4441E
:1025D000324412F8013B03F00F011B0604EBC10E5D
:1025E00005EBC10A18D444F831709445D8F800308E
:1025F000CEF80430EDD103364E45E3D10B22D8F8A6
:1026000000301E488DF8042001A998470446002890
:10261000AAD004F061FCA7E745F831709445D8F8DA
:102620000030CAF80430D4D103364E45CAD1E5E7AC
:102630000324204602B0BDE8F0878528B4D0FFF718
:10264000B7FDB1E70C4B00200021C3E900011D726A
:10265000A5E7D7F80480D1E7040800203000002067
:10266000C92200005D0700206807002064070020E1
:10267000B40700206C07002050070020F07F010005
:1026800008B504F089FF40B104F08EFF28B9054871
:1026900002F0AAFE18B9002008BD082008BDFFF707
:1026A00087FDF8E7947F010004F020BC04F052BDE0
:1026B0004FF0804303E0D3F83824D1072BD5D3F86B
:1026C00038249207F7D530B583B0134801A902F03A
:1026D000D3FB0446E8B1114D28682060002002F0C9
:1026E000BDFA0F4B0F481B88026801339B1AE38029
:1026F000002102F045FCA080002002F0B7FA01A9F9
:10270000054802F0EBFB084B1B6801460BB128465D
:10271000984703B030BD704730000020847F01002F
:10272000FC070020000800205007002010B582B0F0
:10273000822313488DF8003001A902F09DFBE8B117
:10274000044600982060002002F088FA0D4B0E48E5
:102750001B88026801339B1AE380002102F010FC01
:10276000A080002002F082FA01A9054802F0B6FB21
:10277000064B1B6801460BB16846984702B010BD76
:1027800030000020FC070020000800205007002037
:102790002DE9F043077A83B0002F5ED000F10904E1
:1027A0004FF003093D4EDFF8F880A64619FB0749B4
:1027B0009EF801500023AB420EEB03021DD09EF8A1
:1027C000021012F901C0525CBCF1000F02F00F01BF
:1027D00008DB56F831200133002AECD0112003B079
:1027E000BDE8F08302F00F02013358F83220002ACE
:1027F000F4D1AB420EEB0302E1D10EF1030ECE4554
:10280000D6D14FF0000E254D254E714601EB41010A
:1028100021444B78DBB14FF0000C63468A780B44BF
:102820009F569B5C002F03F00F0205EBC20706EBDF
:10283000C20824DB45F83200426812687A604A78A0
:102840000CF1010C5FFA8CF39A42E7D8077A0EF18B
:10285000010E5FFA8EF1B942D8D3124A13681BB148
:102860001A681368002BFBD1106043680B221B68A9
:102870008DF8042001A9984703B0BDE8F08346F81D
:10288000320042681268C8F804204A780CF1010C42
:102890005FFA8CF39A42C1D8D8E700BF6C070020DA
:1028A000B407002068070020024B1878003818BFD2
:1028B000012070475C070020030710B5044604D5CB
:1028C0002046BDE8104004F0DDBF05F05DFA20466B
:1028D00005F000FA2046BDE8104004F0D3BF00BF69
:1028E00005F03EB8014B1868704700BF680700202C
:1028F00010B50D4B8646186878B1047A74B103465A
:10290000002202E00132A24208D093F809C0F44547
:1029100003F10303F6D101B10A7010BD0368186812
:102920000028EAD110BD00BF6807002043681146A7
:102930001B68184700F00F03082B0AD802064CBF8B
:10294000054A064A02EBC303186810B143681B68C6
:1029500018471020704700BFB40700206C07002004
:1029600038B5094B1C6864B1054602E023681C6851
:102970003CB1636820461B68294698470628F5D075
:1029800038BD062038BD00BF6807002038B50446B2
:102990000D4604F067FF18B1054B1B78022B01D0E0
:1029A000082038BD29462046BDE8384005F0A0B8CB
:1029B0005D07002038B504460D4604F053FF18B1FA
:1029C000054B1B78022B01D0082038BD2946204634
:1029D000BDE8384005F01EB95D070020F8B5436832
:1029E0009B6805460E4614461BB19847062800D042
:1029F000F8BD34BB2B7AB34228D9093506EB460122
:102A00000D446B78DBB11F4605E0013404F03AFF5A
:102A1000A74214D06B78E2B2934214D9AB782A194A
:102A2000D65C33073046F0D405F0AEF9304605F0F9
:102A300051F90134304604F025FFBC42EAD10020B0
:102A4000F8BD0720F8BD00231B78FFDE6378FFDEAA
:102A500043681B6903B11847184670472DE9F047D2
:102A60002B4BD3F80090B9F1000F48D099F808A08B
:102A7000BAF1000F3CD009F10906002704E0013744
:102A8000574506F1030633D0D9F804309B68FCB2F1
:102A90002BB100222146484698470628EFD199F8E5
:102AA0000830A3422DD97378002BE8D09846002433
:102AB00005E0013404F0E6FE4445E0D07378E2B26C
:102AC0009A4221D2B3783219D55C2B072846F0D42C
:102AD00005F05AF9284605F0FDF80134284604F0BF
:102AE000D1FE4445EAD10137574506F10306CBD163
:102AF000D9F80030D3F80090B9F1000FB6D1BDE895
:102B0000F08700235B78FFDE00231B78FFDE00BF29
:102B1000680700202DE9F843204BD3F80080B8F176
:102B2000000F35D098F80890B9F1000F29D008F1BE
:102B300009050027D8F80430DB68FCB213B1214640
:102B40004046984798F80830A34223D96B789BB148
:102B50000024E2B29A421E460BD22A19AB78013405
:102B6000D05C04F0FDFEB44206D06B78E2B29A422B
:102B7000F3D300231B78FFDE01374F4505F1030532
:102B8000D8D1D8F80030D3F80080B8F1000FC9D1FF
:102B9000BDE8F88300235B78FFDE00BF68070020F4
:102BA00070B503780446852B00F2BD80DFE813F092
:102BB000E701A401BC001F024302DF00E600BB00E6
:102BC000000113012601BB00BB00BB00BB003901A3
:102BD000BB00BB00BB00BB00BB00BB00BB00BB001D
:102BE000BB00BB00BB00BB00BB00BB00BB00BB000D
:102BF000BB00BB00BB00BB00BB00BB00BB00BB00FD
:102C0000BB00BB00BB00BB00BB00BB00BB00BB00EC
:102C1000BB00BB00BB00BB00BB00BB00BB00BB00DC
:102C2000BB00BB00BB00BB00BB00BB00BB00BB00CC
:102C3000BB00BB00BB00BB00BB00BB00BB00BB00BC
:102C4000BB00BB00BB00BB00BB00BB00BB00BB00AC
:102C5000BB00BB00BB00BB00BB00BB00BB00BB009C
:102C6000BB00BB00BB00BB00BB00BB00BB00BB008C
:102C7000BB00BB00BB00BB00BB00BB00BB00BB007C
:102C8000BB00BB00BB00BB00BB00BB00BB00BB006C
:102C9000BB00BB00BB00BB00BB00BB00BB00BB005C
:102CA000BB00BB00BB00BB00BB00BB00BB00BB004C
:102CB0004D0186005C010302CF01DF00864B87498E
:102CC000D3E900029047864B1C684CB1834D636882
:102CD00020461B682946984723681C68002CF6D1BB
:102CE000804C63680BB10D209847FFF713FF01F08C
:102CF000FDFB7D4B1B68002B00F0D48101207B4D38
:102D000004F034FB2B78022B02D0053B032B08D8B0
:102D100002F03CFB2B78022B01D0082B01D104F0F0
:102D200077FD01232B7070BD704D2B78022B02D0E4
:102D3000053B032B08D802F029FB2B78022B01D08E
:102D4000082B01D104F064FD664B5B6803222A70F6
:102D50000BB102209847624B1D6845B16B6828464D
:102D60001B68214698472B681D68002DF6D15A4BE9
:102D70002146D3E90002BDE87040104790F90230C7
:102D80008278002BB4BF5A4B534B02F00F0203EB77
:102D9000C203D3E90002214690470028C3D0A0789F
:102DA0000207C0D00307BED4BDE8704004F086BF60
:102DB0004C4B5B680BB108209847494B1D68002DB0
:102DC000B1D06B6828461B68214698472B681D6860
:102DD000002DF6D1A7E7434B5B680BB1092098475C
:102DE0003F4B1D68002D9ED06B6828461B6821460E
:102DF00098472B681D68002DF6D194E7394B5B6826
:102E00000BB10A209847364B1D68002D8BD06B689C
:102E100028461B68214698472B681D68002DF6D16F
:102E200081E7304B5B680BB10F2098472C4B1D6836
:102E3000002D3FF478AF6B6828461B682146984701
:102E40002B681D68002DF6D16DE7284C2378062BE2
:102E500000F02A8103F0FD03052B7FF464AF04F03A
:102E6000E1FC0223237070BD204DFFF753FE04F0F8
:102E7000A5FA2B78022B02D0053B032B08D802F0D1
:102E800085FA2B78022B01D0082B01D104F0C0FC6D
:102E9000134A146800232B704CB1164E6368204609
:102EA0001B683146984723681C68002CF6D10A4BF2
:102EB0001049D3E9000290470A4B5B680BB10E2022
:102EC00098472B78022B03D0053B032B3FF62BAF03
:102ED000BDE8704002F05ABA6C070020807F010004
:102EE0006807002050070020640700205D070020CD
:102EF000B40700207C7F01008A4DFFF70BFE01F034
:102F0000EBFA2B78022B07D05A1F032A00F2BF805E
:102F1000082B01D004F086FC834B5B6802222A70E8
:102F20000BB101209847814B2146D3E9000290471D
:102F30007F4B1D68002D3FF4F6AE6B6828461B687A
:102F4000214698472B681D68002DF6D1EBE6754D9C
:102F50002B78032B00F0B18004F020FC00283FF414
:102F6000E2AE2B78022B00F0DA805A1F032A00F21F
:102F7000CF80082B00F0D38006232B7070BD694BE7
:102F80001B78032B00F09580082B00F09280664B95
:102F90005B680BB100209847664B1D68002D3FF41D
:102FA000C2AE6B6828461B68214698472B685D684F
:102FB000002DF6D170BD5B4D2B78032B7FF4B3AEA3
:102FC00004F0FCFA00283FF4AEAE2B78022B02D0BE
:102FD000053B032B08D802F0D9F92B78022B01D03E
:102FE000082B01D104F014FC04232B7070BD4D4D4F
:102FF0002B78082B46D0022B7ED0053B022B73D8B2
:1030000005232B70484B5B680BB103209847474B57
:103010002146D3E900029047454B1D68002D3FF43F
:1030200082AE6B6828461B68214698472B681D684E
:10303000002DF6D170BD3C4B5B680BB10320984767
:103040003A4B3D49D3E900029047394B1C684CB1DB
:10305000394D636820461B682946984723681C68D9
:10306000002CF6D12F4D2B78062B18D0082B06D02C
:10307000022B04D0053B032B41D804F0D3FB0223E1
:103080002B7070BD02232B7004F0D6FBBAE72B48DF
:1030900002F04EF92B78022B7FF43AAF3CE707237E
:1030A0002B7070BD207A2AE604F0BCFB0823237045
:1030B00070BD2348FFF774FD69E704F07FFA00282C
:1030C0003FF44AAF2B78022B02D0053B032B08D8E4
:1030D00002F05CF92B78022B01D0082B01D104F00F
:1030E00097FB04232B7037E7144802F021F92B7863
:1030F000022B01D0082B83D104F08AFB80E70F4814
:1031000002F016F92B78022BB9D0082BB7D0B4E710
:103110000A4802F00DF92B78022B7FF42AAF04F055
:1031200077FB29E75D070020500700206C0700208F
:103130006807002064070020747F01002800002039
:10314000787F010070B5264E82B034680023019369
:10315000FCB1A588A5B1E388B3F5006F3ABF5A1C4E
:1031600092B2012205F1FF3528BF0023E280A5803D
:1031700001A8ADF80630FFF713FD012002B070BDC5
:103180002046FFF70DFD1749174801F0E9FE3560AD
:10319000F3E71449144801F0B1FE044630600028FA
:1031A000D7D1124B1B6813B9184602B070BD01F09D
:1031B00055FD0F4A0D481388B3F5006F39BF5D1CEC
:1031C000ADB20125234601211580ADF8063001F08E
:1031D000F9FE002001F04AFD01A8FFF7E1FCCCE771
:1031E000480700204407002030000020000800208D
:1031F000FC070020F0B58446006891F808E000283C
:1032000000F01485A0F213307C2800F281807C2825
:103210007ED8DFE810F09E0011039B01FD03F4004F
:10322000EC00C302A3017D007D007D007D007D00D8
:103230007D00720473017D007D007D007D001D0412
:1032400060012F017D007D007D008604FC001C01D3
:103250007D007D007D007D000A044F013F037D005D
:103260007D007D007D007D007D00AE027D007D0043
:103270007D007D0042047103E702CB0255037D000F
:103280007D00B3010103F9024D0396027D007D002C
:10329000BB02B3026503A6027D007D00ED030903B6
:1032A000F5039E025D037D007D007D007D007D00B5
:1032B0007D007D007D007D007D007D007D007D0026
:1032C0007D007D007D007D007D007D0061043D026C
:1032D0007D007D007D0005047D007D007D007D007A
:1032E00030047D007D007D007D0020047D007D0098
:1032F0007D007D007D007D005E048E027D007D00EE
:103300007D007D0082007D007D007D007D008200CB
:1033100000231846CCF80030F0BD0124002012B183
:103320009CF804501554914E91480578307801303E
:10333000C0B23070854200F212848E4D2878013080
:10334000C0B28645287000F2198440F29A330120F9
:10335000E0E7002A00F038859CF804001070012B8B
:103360004FF00B008CF8040040F25D850546561CBA
:103370000324022035700D7D8CF80450984280F0B3
:10338000DE84104405709C424FF002008CF804006B
:1033900080F0BC84151901342870A3424FF002005C
:1033A0008CF8040040F29E84151901342870A34261
:1033B0004FF002008CF8040040F27D8415190134AE
:1033C0002870487E8CF80400A34240F262841519EC
:1033D00001342870A3424FF000008CF8040040F242
:1033E0004E84151901342870624D0020A9E7002A87
:1033F00000F053859CF8040015460124E0E7002AFC
:1034000000F03A859CF8040015460124CEE7002A16
:1034100040F004850124487E8CF804009C4280F032
:10342000998301340020A3428CF8040040F23C82CE
:103430005148056801340E7D2878864200F0968355
:103440004B486D78494E05700020307072E70124BA
:10345000002AE7D09CF8044015460120002683424C
:103460002C708CF8046040F21F82434C165425687F
:10347000441CE0E740480568002A00F004859CF8F9
:1034800004401646012034702C780E7DA64200F0D0
:103490000A848E7DA64200F07D84002483428CF84D
:1034A000044040F20182441C002AC4D09CF804600D
:1034B0001654C0E7002A00F0A6849CF80450164673
:1034C00001200024984235708CF8044080F04F842D
:1034D00015180130C2E7002A00F0C5849CF80440AA
:1034E000154601202C70244C256883426C788CF89A
:1034F000044040F2F28316180130C4E7002A40F07D
:10350000B684754601241B480078A84280F0F884F0
:1035100000EB400001F10905174F2E5C8CF80460A8
:103520000544A3423D6040F22784601C002A00F05D
:10353000F7839CF80450155583424FF000048CF833
:10354000044040F2D98315180130CBE7002A00F07F
:1035500062849CF804501046012413E7002A00F00E
:10356000A4849CF80400154601243CE70C090020C3
:103570000D0900201409002010090020002A00F085
:103580008E849CF80440154601202C7083424FF035
:1035900024048CF8044040F27783151801302C7015
:1035A00083424FF001048CF8044040F26383151805
:1035B00001302C7083424FF003048CF8044040F239
:1035C0005483151801302C708C7D8CF80440834294
:1035D00040F24683151801302C7083424FF00404EA
:1035E0008CF8044040F23283151801302C7083426D
:1035F0004FF024048CF8044040F223831518013066
:103600002C7083424FF002048CF8044040F2238374
:10361000151801302C7083424FF002048CF80440DE
:1036200040F2FF82151801302C7098424FF00504CB
:103630008CF8044080F0F082151801302C70834221
:103640004FF024048CF8044040F2E1821518013058
:103650002C7083424FF006048CF8044040F2D28272
:10366000151801302C700C7D8CF80440834240F218
:10367000C482151801302C708D7D8CF80450834263
:1036800040F2B6821618441C357099480568D7E692
:10369000002A00F032849CF80440154601202C706A
:1036A000934C944D24682D786678AE4240F22D8478
:1036B000A67825448342AD5D8CF8045040F2218306
:1036C000451C12B19CF80460165420780C7D84428D
:1036D00000F085828C7D844200F03B834020AB4229
:1036E0008CF8040040F2D5816C1C002A00F0668240
:1036F0009CF8040050559C424FF000008CF80400E8
:1037000080F0448215190134287079480D7D0068D5
:103710000078854200F03F828D7D85427FF403AEC4
:103720000020A3428CF8040040F298832046013424
:10373000F5E5002A00F08E839CF80400154601246C
:10374000E2E7002A00F0B8839CF804401546012007
:1037500042E7002A00F0B6839CF804401546012099
:1037600089E7002A00F0BB839CF80440154601203D
:103770005AE75F4801240568002095E6002A00F01A
:103780009F839CF804401546012039E7002A00F089
:1037900095839CF804401546012027E7002A00F095
:1037A00080839CF804001546012412E6002A00F0EC
:1037B0005C839CF80440154601202C7083424FF036
:1037C00001048CF8044040F27B82151801302C7003
:1037D00083424FF005048CF8044040F25F821518D4
:1037E0000130D2E6002A00F033839CF804401546ED
:1037F00001202C7098424FF010048CF8044080F0A7
:10380000768215180130D8E7002A00F051839CF821
:10381000044015460120CCE6002A00F044839CF8C1
:10382000044015460120BAE6002A00F050839CF8B7
:103830000440154601200BE7002A40F05283087D22
:103840008CF80400012B40F27A8203200224022526
:103850009C428CF8045080F05982022498428CF8E3
:10386000044080F03F82441C02209C428CF80400FB
:1038700080F021820134487E8CF804009C4280F064
:103880000882013400209C428CF8040080F0F7810B
:103890000134A9E5002A7FF4DDAD012400209C421B
:1038A0008CF80400FFF4C4AD40F23D33012031E553
:1038B000002A00F0FF829CF804401546012082E6B1
:1038C000002A00F0E8829CF80440154601207EE7BB
:1038D000002A00F0F9829CF8045016460124D3E631
:1038E000002A00F0F8829CF804401546012091E679
:1038F000100900200C0900200120002A40F0F88265
:10390000002498428CF8044080F005820130102495
:1039100083428CF8044040F2EA8101300124834262
:103920008CF8044040F2CC810130052498428CF898
:10393000044080F0B3810130242483428CF8044099
:1039400040F2A2810130012483428CF8044040F20D
:1039500091810130032483428CF8044040F2858138
:1039600001308C7D8CF80440984280F079810130E0
:10397000042483428CF8044040F2688101302424FE
:1039800083428CF8044040F25C810130022483427F
:103990008CF8044040F25F810130022483428CF8AD
:1039A000044040F23E810130052483428CF80440FB
:1039B00040F232810130242483428CF8044040F2EA
:1039C00026810130062498428CF8044080F01A8148
:1039D00001300C7D8CF80440834240F20E810130AE
:1039E0008C7D8CF80440834240F20281441C4CE6FA
:1039F000002A00F072829CF80440154601201DE662
:103A0000002A00F066829CF804401546012029E651
:103A1000002A00F021829CF8040015460124BBE432
:103A2000DB480125046800204BE601240020002A21
:103A300000F0FE819CF804501554A3424FF00000A2
:103A40008CF8040040F2DA8105461619601C38E54E
:103A5000012000246AE501250024002A00F0A78047
:103A60009CF804001055AB424FF040008CF8040065
:103A70000FD96C1C3EE601250020002A00F097803B
:103A80009CF804401454AB424FF040008CF8040002
:103A9000EFD84FF4617301203CE401200024002A98
:103AA00000F06F819CF80450155583424FF02404B8
:103AB0008CF8044040F24881151801302C70834284
:103AC0004FF000048CF8044040F2258115180130B5
:103AD0008FE60124002508E601200024002A00F0DA
:103AE000F4809CF80450155583424FF005048CF87F
:103AF00004406FD915180130D1E501250024002AB2
:103B000000F04F819CF804001055AB424FF00400C8
:103B10008CF8040040F2268156196C1C30700D7A26
:103B2000F1E401240020002A00F060819CF8045098
:103B30001554A3424FF002008CF8040040F23F817C
:103B400005461619601C35704C7E8CF80440834283
:103B50003FF6BEAC40F22F330120FFF7DBBB07205E
:103B6000A3428CF8040030D9601CB7E70520A342BB
:103B70008CF8040040F21E81601C90E70920A342EB
:103B80008CF8040040F22D81651CB8E740F28533C3
:103B90000120FFF7BFBB086AA34200788CF804003D
:103BA0003FF6C4AD40F28A330120FFF7B3BB40209B
:103BB000AB428CF804007FF66CAF6C1C0020A34273
:103BC0008CF80400E2D901349FE540F26E33012005
:103BD000FFF7A0BB40F26F330120FFF79BBB032030
:103BE000AB428CF8040040F229812846013544E7B5
:103BF00040F25A330120FFF78DBB40F259330120C8
:103C0000FFF788BB4FF456730120FFF783BB40F2E8
:103C100057330120FFF77EBB40F256330120FFF7F8
:103C200079BB40F253330120FFF774BB08208CF8B6
:103C30000400002B7FF48DAB40F213330120FFF71B
:103C400069BB40F251330120FFF764BB4FF454735A
:103C50000120FFF75FBB40F252330120FFF75ABB50
:103C600040F24D330120FFF755BB4FF45373012051
:103C7000FFF750BB40F24B330120FFF74BBB40F244
:103C80001A330120FFF746BB40F24A330120FFF709
:103C900041BB40F219330120FFF73CBB40F24933EE
:103CA0000120FFF737BB022483428CF8044040F226
:103CB000CA80441C37E74FF446730120FFF72ABB44
:103CC00040F246330120FFF725BB052483428CF8E0
:103CD00004407FF67FAF0130E2E440F22933012057
:103CE000FFF718BB40F217330120FFF713BB40F278
:103CF00045330120FFF70EBB4FF44A730120FFF755
:103D000009BB40F273330120FFF704BB40F21633C6
:103D10000120FFF7FFBA4FF451730120FFF7FABA01
:103D200083428CF80420E7D90130194C256883427E
:103D30006C788CF80440D0D90130FFF7A5BB40F275
:103D400015330120FFF7E6BA40F243330120FFF7B5
:103D5000E1BA0220AB428CF8040040F28F802C467E
:103D600001357AE640F222330120FFF7D3BA40F260
:103D700036330120FFF7CEBA40F227330120FFF798
:103D8000C9BA242483428CF80440DDD90130B7E558
:103D9000100900200A2483428CF8044076D9441C80
:103DA00045E60420AB428CF80400DBD96C1C0D7A8C
:103DB000FFF7A9BB40F242330120FFF7ABBA40F254
:103DC0002E330120FFF7A6BA0B20012B8CF804003C
:103DD00029D9087D8CF80400022BB0D004200324DC
:103DE00035E540F221330120FFF794BA0220A342C7
:103DF0008CF80400E3D90134FFF70DBB40F23533F2
:103E00000120FFF787BA01240020A3428CF80400A8
:103E1000ADD9013442E50220012418E59CF8045094
:103E2000164601208FE64FF445730120FFF772BA62
:103E3000A3428CF80420E1D90134E5E74FF45E7326
:103E40000120FFF767BA40F22D330120FFF762BA75
:103E500001205CE5012458E40120FEE440F28F33A8
:103E60000120FFF757BA01205FE7012056E59CF8D3
:103E700004001646012451E60124F5E440F27D33A6
:103E80000120FFF747BA0120FFF7FEBA4FF44D7348
:103E90000120FFF73FBA012047E50124EBE40120B0
:103EA0004AE50124EEE401204DE50124FFF79CBA28
:103EB00001204FE5012054E5012059E501205EE590
:103EC000012063E501208BE50124FFF7DEBB012023
:103ED00078E501207DE501205FE501206BE501200B
:103EE00062E59CF80450164602240120FFF742BA0E
:103EF0009CF8044015460120E0E50120FFF7D0BB07
:103F0000034A002313601B78FFDE00231B78FFDECB
:103F10001009002078B910B504460868037B202BEF
:103F200001D0062010BD00F10E010722183011F05B
:103F300091FE204610BD0320704700BF2DE9F047D9
:103F40000B7888B00C4605460E2B3CD8DFE803F012
:103F5000180C18183B351D3B3B083B181818180067
:103F6000C3690BB1032198472B680022C3E91E22C5
:103F7000C3E9202203F134011A845A62DA625967D4
:103F80000024204608B0BDE8F087027A002A00F03D
:103F90005F81837A0930002B00F055818B78E97AB4
:103FA000415C9942ECD01B0625D4E67806F0FD036F
:103FB000012BE5D02EB30324E3E74B78DA0904D1D3
:103FC0005B09012B75D00624DBE713F0600FC3F308
:103FD000411249D0012AF6D18B78212BF3D1B1F8C7
:103FE0000720072AEFD10168601C183108B0BDE82E
:103FF000F04700F085BAE378002B52D0032BBFD0F6
:10400000D9E72C68012A04F10C0300F025816A7BB2
:10401000012A40F21F810693904AAB7B05922B4404
:10402000A76A93F80D80002F40F08580E36FC4F8F5
:104030008030E36AA767E767002B78D004F12C0390
:1040400093E8030004F1240383E803000023E36200
:1040500005A94046FEF7AEFC0446EB69002B90D064
:104060000021284698478CE703F01F03012BAAD1B3
:104070008B78062BA7D105A8039200F07DFD03AB3A
:10408000E27800932179034606462846FEF7FAF9BE
:10409000052898D0601C039A314600F031FA044696
:1040A0006FE7EB69002B3FF46BAF0121284698477F
:1040B00066E78B780668202B1BD0222B83D1B1F8C2
:1040C0000730002B7FF47FAFB1F80330328C33849C
:1040D00003F0010102F001028A423FF451AFC369CB
:1040E000002900F08480002B3FF44AAF022198475A
:1040F00046E7B1F80720072A7FF465AF3373B1F8BC
:1041000007300024DBB2737320460E36CDE9056319
:10411000079400F0A3FD204605A9FEF737FC0446EE
:10412000002800F08780002000F0A0FD29E7002390
:104130006362002491E7D4F884A0606A574528BFE1
:10414000574604F134093A46494611F083FD09EB1C
:104150000702AAEB0703C4E91D23E26FE6673A44AE
:10416000C4F88020E26A002AE1D004F12C0797E825
:10417000030004F124064FF0000986E80300C4F8A8
:104180002C90E3B92DE0606A11F064FDA26AA36F80
:10419000C4F880209B1AA367636F13446367EB69BD
:1041A00013B1002128469847E36A002BC0D097E856
:1041B000030086E80300A36FC4F82C908BB1A26AB9
:1041C000616F9A42DFD91A46606A11F043FDA26F0F
:1041D000A36AE2679B1AA362636A13446362002BBB
:1041E000A7D005A94046FEF7E5FB044635E70BB12D
:1041F000032198472B7A012B27D96B7B1BB3AB7B11
:104200002B44187B02F0D6FC2B7A012B1DD96B7B3B
:10421000012B17D9AB7B2B44587B02F0CBFC00233E
:1042200006F13402C6E91E33C6E920337362F36235
:104230007267A5E60A4B03A9CDE9033500F088FCB7
:10424000044670E700231B78FFDE00235B78FFDE67
:104250005378FFDE3378FFDE7378FFDE65420000BF
:10426000153F00004360CA699A4210D38A6910B4AE
:104270000260C8690C6FC01A1A44C8612344003830
:1042800018BF01205DF8044B8A610B67704701F18C
:104290002802026000208B67704700BF0368B3F8F4
:1042A00020C01CF0010F16D00B46017A012916D947
:1042B000417B91B110B5817B084484B091060CBF5D
:1042C0000124002401A9007B0394CDE90132FEF70B
:1042D0005DFB04B010BD082070470B78FFDE0023A3
:1042E0005B78FFDEF0B50468238CDB0783B033D541
:1042F000656A16462DB1E36A002B30D0112003B059
:10430000F0BDA76F97422FD2C4E90912037A012B9F
:1043100038D9437B012B37D9837B03445E7B1B4B0E
:10432000009304F10C0301936FB13A460846616FA4
:1043300011F090FCA26FA36AE2679B1AA362636A02
:10434000A5671344636269463046FEF733FB0028D5
:1043500008BF922003B0F0BD082003B0F0BD92204A
:10436000C4E90B1203B0F0BD0846616F11F072FC96
:10437000D4E91D32921B3344C4E91D32C4F8806075
:104380002846BCE76B78FFDE2B78FFDE6542000035
:10439000002070472DE9F04F85B04B6800900C4627
:1043A0001546002B00F0868003F084FCE368AB42E6
:1043B00028BF2B4681461E46002B00F089804FF017
:1043C000000B01955F464FF0010AD8465D46D4E9DF
:1043D0000112B242934628BFB346F9B109EB070078
:1043E0005A4611F037FCA268E168C4F80480A2EBD9
:1043F0000B02A1EB0B03A6EB0B065F44A260E3608C
:104400002AB3002B08BF4FF0000A002EDFD1009B1B
:104410005046C3E9009705B0BDE8F08FB2B1204621
:104420005B4650F8101B4A68556809EB0702A8471D
:10443000A268E168A2EB0B02A1EB0B03A6EB0B0653
:104440005F44A260E360DAB10125DAE7E368BDB951
:104450003BB32168E1B1CDF80880AB4603E0A36827
:1044600021680133A3604B6800225D6802A8012324
:10447000A8470028F3D15D462061002EA7D1C6E7EA
:1044800022681268116821607BB101250029E2D100
:10449000019D6160002FBAD0BD4288BF4FF0000A75
:1044A000B5E7AA46002E92D1B1E79A460125002E23
:1044B0008DD1ACE70B681B68D3F80090B9F1000F01
:1044C0007FF472AF8F68002F7FF46EAFBA469EE71D
:1044D0001F464FF0010A9AE708B50020FEF7ECF9F5
:1044E000BDE808408020FEF7E7B900BF08B500200E
:1044F000FEF7F6F9BDE808408020FEF7F1B900BFED
:1045000070B5C38893421E4628BF1646934284B0B6
:104510000D4612D8002400200394CDE9015600F086
:104520009DFB01A98020FEF731FA044688B10020E6
:1045300000F09CFB204604B070BD8020144603F0C0
:1045400081F9B4FBF0F303FB1044B4FA84F464097A
:10455000E1E703F06DFC80280BD1094A094B92E892
:10456000030083E80300002000F080FB204604B035
:1045700070BD002000F07AFB1024204604B070BD0E
:10458000E87F01003C0900202DE9F04F0B780E2B4D
:1045900087B00DD8002B34D0013B0D2B31D8DFE88C
:1045A00003F0221D32303F54303030301D106B7913
:1045B000852B26D1A44B1A78032A22D1A34904249F
:1045C00017E0A14B1A784AB1A04900240A78A04804
:1045D0001C7022F002020A70FEF7E2FA002528465B
:1045E00007B0BDE8F08F984B1A78032A09D0974995
:1045F00003240A7896481C7022F002020A70FEF723
:10460000CFFA0625EBE7934800F0F6FC0028E5D04A
:10461000914B0122DA65BFF36F8FBFF34F8FDDE758
:1046200005230DF101008DF8003003F0BDFB9DF86E
:1046300001308A4C002203F01F052260032D00F296
:104640009880DFE805F0C198766FC87803280C469B
:10465000D7D0824E336823B3002271683260984706
:104660000546F8B93368002B00F0D480A378002BFE
:10467000B4D103F0BFFBB1E74FF08043D3F8383437
:1046800013F0010F704B1A7812D0022AA6D06F498E
:1046900002249BE76C4B1A78012A9FD06B490124B6
:1046A00094E70E2503F0BAFB284607B0BDE8F08F6B
:1046B000012AF3D192E79DF80210062900F0A581A6
:1046C000082900F0868169BB654F0222384611F047
:1046D000DFFB5E4A3B781278900743F0010148BF48
:1046E00043F00303397048BF3B70BDF80730022B1D
:1046F0001D4628BF0225022B00F2DD810023002089
:10470000CDE90375059300F0A9FA03A98020FEF70F
:104710003DF90546002800F04E81002000F0A6FA81
:10472000062DBFD16846FEF71BF90546002D69D05E
:10473000B8E79DF80500020707D06946FEF7FAF8CA
:1047400006280546F2D19DF8013013F0600FC3F33F
:1047500041160ED19DF802303B4A9DF80550127863
:10476000012B00F0CA80032B00F0B680002B00F074
:104770009080062596E79DF8050003A9FEF7B8F896
:10478000064600284CD09DF80C106A46FEF7CEF87D
:1047900006280546CAD19DF801309DF80C1013F08B
:1047A000600FE6D1284ADD0912789DF8023040F00A
:1047B00059810B2BDDD1052A34D1BDF80330FF2BF5
:1047C00040F29B8107256DE713F0600FC3F341189A
:1047D000A8D1DB097FF46FAF9DF80230032B23D003
:1047E000092B3FD0012B9DD1BDF80330012B99D16E
:1047F000FEF75AF8002800F02481144A137823F0B9
:104800000203137023682BB103F012FB00287FF41E
:10481000E5AE2EE703F0F8FAE0E6284600F026FAC7
:1048200010253FE708253DE7BDF80330012B7FF455
:1048300079AFFEF739F8002800F00381034A1378B6
:1048400043F002031370DDE7890900208809002086
:10485000DC7F010084090020007002403C09002038
:1048600044090020B14D2B78043B012BDAD89DF888
:104870000330002B00F00E81012BA3D1FEF7EEF8E0
:104880002B78052BBED00523A9482B70FEF788F99D
:10489000B8E7052A01D02B07C4D1284603F052FA05
:1048A000BDF80730A34F022B1D4628BF0225022B5F
:1048B000388000F2C8800020CDE90375059600F02D
:1048C000CDF903A98020FEF761F80546002872D0D3
:1048D000002000F0CBF9E5E62E073FF54AAFBDF822
:1048E0000330002B7FF445AF28073FF442AF052A81
:1048F00098D1284603F0E2F984E729073FF539AF5C
:10490000BDF80330002B7FF434AF2B073FF431AFF9
:10491000052A87D1284603F037FA284603F0DAF94A
:1049200070E7BDF80730002B3FF474AF092B28BFA8
:1049300009239946FDF7D6FF4FF0090A0646B0B1A4
:10494000CDF80C80002700E0013772680123D2F80F
:1049500004B03146002203A8D8470028F4D13268B9
:10496000337A16682B44BA44DDB2002EE8D1714F79
:1049700071494A46384611F06DF93D71A7F802A019
:10498000FDF792FF18B1FB7943F02003FB71FDF7AF
:10499000A9FF6A4B1860BDF80720DA600020C3E960
:1049A000017900F05BF966498020FEF703F80546BF
:1049B00000287FF4B2AE03F03BFA80287FF42DAFDD
:1049C000604B93E8030084E80300284600F04EF9AA
:1049D00018E7564A1278052A03D0042A7FF4A2AEBB
:1049E0002B46BDF80720534F012A154628BF012545
:1049F000012A3B707FF682AE802002F023FF012364
:104A0000B3FBF0F300FB03F379E69DF80430022BCF
:104A100087D0032B5BD0012B7FF484AEBDF8073029
:104A2000002B3FF4F7AE484912220DF10100FFF7C9
:104A300067FD0546062D3FF475AE002D3FF4E2AE4E
:104A400030E60F252EE6802002F0FCFE0223B3FBA9
:104A5000F0F303FB00F0A0F1020CDCF1000646EBE2
:104A60000C0628E7002B52D00A2B7FF482AE052AD1
:104A70007FF4D8AE3046FDF7EBFF2E4903462A46B9
:104A80000DF101000B70FFF73BFD0546002D3FF4D3
:104A9000B9AE07E6FEF73EF82B78042B3FF4B2AE32
:104AA0002A4A23481378042123F002032970137043
:104AB000FEF776F8A6E6802002F0C4FE0223B3FBE0
:104AC000F0F300FB03F3991E4B424B4117E6BDF890
:104AD0000730002B3FF49EAEBDF805109DF8030093
:104AE00000F07AF8014600283FF41CAE02780DF180
:104AF0000100FFF705FD05469CE79DF803203046C1
:104B0000FDF76CFF0546002D3FF47CAECAE5052A93
:104B10007FF488AE074902220DF101000B80FFF7F8
:104B2000EFFC0546002D3FF46DAEBBE58909002082
:104B3000DC7F0100440900201480010018090020D6
:104B4000E07F0100E87F010020800100880900204B
:104B500038B505460C4603F06BF9A84207D194E836
:104B60000300044A82E803000023184638BD1023DE
:104B7000184638BD3C09002008B1402303600148B5
:104B8000704700BF4409002070B54FF0805286B0D6
:104B9000D2F8A830D2F8A41000916FEA83436FEAEC
:104BA00093430B4A0B4E9BB20D2102A811F020F942
:104BB00002AD002404E015F8013B06F8013B013486
:104BC00002A811F055F88442F5D306B070BD00BFBD
:104BD000448001008C09002090B3012809D00228EC
:104BE00007D0032805D0042803D0052801D00020D1
:104BF0007047174B03EB4003587828B3154B10B59B
:104C000053F82040F4B123780BB9A01C10BD00204C
:104C1000FFF7B2FF2178C1B12246C4F1010C02EBCB
:104C20000C03DCB2234620F8141012F8011F0029EF
:104C3000F5D101335B00DBB243F44073038010BD58
:104C400005487047204610BD704740F20233F5E733
:104C5000AC80010050800100A680010072B6024ABB
:104C600013680133136070479C090020034A1368DE
:104C7000013B136003B962B6704700BF9C09002076
:104C80001EF0040F1CBFEFF309800AE0EFF3088069
:104C90000549064A884201D8904202D88D464FF015
:104CA0000000034B184700000000042000E0032030
:104CB000D94C0000BFF34F8F0549064BCA6802F478
:104CC000E0621343CB60BFF34F8F00BFFDE700BF2F
:104CD00000ED00E00400FA052DE9F04F83B08146B5
:104CE000FDF7A8F9FCF7B6FE0028FBD1494B4A4F67
:104CF0009D6A4A4E7B884A4CB9F1000F7AD0002B4E
:104D000043D1444BDB6A331BDB081B0443F001082F
:104D1000DFF82CB1DFF82CA10024012602E00134D9
:104D20001A2C11D006FA04F32B42F8D05BF8242099
:104D3000002AF4D07B88002BF1D051464046013444
:104D4000FDF7BAF81A2CEDD12A060DD57B882BB9C0
:104D50004846FFF7AFFF03B0BDE8F08F2D4B314958
:104D60005A6B4046FDF7A8F82B04F1D57B88002B41
:104D7000EED0284B2C499A6B4046FDF79DF84846EB
:104D8000FFF798FF03B0BDE8F08FA6EB04084FEAE9
:104D9000D8084FEA084848F00108D9F818202349F4
:104DA0004046FDF789F87B88002BAAD0D9F80C3053
:104DB0000193D9F808300093D9E900231C494046F3
:104DC000FCF78AFF7B88002B9BD0D9F81C3000931E
:104DD000D9E9042317494046FCF7FAFF0D4BDB6A7B
:104DE000990795D57B88002B8DD013494046FDF758
:104DF000C7F88DE7002B84D0A6EB04084FEAD8084B
:104E00004FEA084848F001080C494046FDF7B8F859
:104E1000E4E700BF00ED00E04C01002080AD0100A0
:104E2000D8AC0100B4810100D4810100B880010038
:104E3000D0800100088101006481010030810100FF
:104E4000D0860100A881010099B110B4B2FBF3F43F
:104E500003FB1424A4B244B90160446084608281DD
:104E6000C38120465DF8044B704709205DF8044B70
:104E700070470E20704700BF10B483B050E8013F68
:104E80001FFA83FCC489A4448489A44528BFACEBE1
:104E9000040C0489A44502BFBFF32F8F002207E052
:104EA000CCEA030C40E801C4002CE7D14FF001022A
:104EB0008DF803200193019C9DF803200C6032B112
:104EC000006810FA84F003B05DF8044B704702F0FC
:104ED000FF03184603B05DF8044B70470A884B88FF
:104EE0009A4201D00020704750E8012FC2EA0242E6
:104EF00040E80123002BF7D10120704710B483B0A4
:104F000050E8023F1FFAA3FCC488A44502BFBFF3C8
:104F10002F8F00220EE0C489A4448489A44528BFB1
:104F2000ACEB040CC3EA0C4C40E802C4002CE7D103
:104F30004FF001028DF803200193019C9DF803209E
:104F40000C6032B1006800EB144003B05DF8044B14
:104F5000704702F0FF03184603B05DF8044B70473A
:104F60000A884B889A4201D00020704750E8022FEF
:104F7000C2EA224240E80223002BF7D10120704709
:104F8000034653E8000F0A4643E8002C9CF0000F4C
:104F9000F7D17047034653E8002F02EB010043E8C6
:104FA000000C9CF0000FF6D1704700BF034653E899
:104FB000002FA2EB010043E8000C9CF0000FF6D19B
:104FC000704700BF034653E8002F8A422CBF501A97
:104FD000104643E8000C9CF0000FF4D1704700BF6E
:104FE0000346012253E8001F41EA020043E8000C97
:104FF0009CF0000FF6D170470346002253E8000FE3
:1050000000EA020143E8001C9CF0000FF6D1704753
:1050100010B504460020FFF721FED4E900311A68DC
:105020008A4215D9511E19602168A368086812F8D0
:1050300001CCE268248B1B1A0879DBB2984204FB8E
:105040000C2438BF0B710020FFF710FE204610BD66
:1050500000240020FFF70AFE204610BD38B50546A3
:1050600000200C46FFF7FAFD2A681368591C1160EE
:10507000E9682A8B641AB4FBF2F41C70BDE838406E
:105080000020FFF7F3BD00BF2DE9F041078BCE1CD8
:10509000043F3E440546B6FBF7F6FFF7B9FF00288C
:1050A00034D0F6B24FF48073013E04468380C7804B
:1050B00005602CD003464FF0000807E062794645B2
:1050C00002F1010262713860056020D028461F4657
:1050D000FFF79EFF08F1010803460028EED167792B
:1050E000791E17D02246013399421268FBD1D2F8BB
:1050F00000805FB12668002501E03446366821460D
:1051000040460135FFF7AAFFAF42F6D800242046FB
:10511000BDE8F08120682146FFF7A0FFF6E700BF59
:1051200001210430FFF736BF2DE9F041012104468B
:105130000430FFF73BFF10F0FF0301D0BDE8F08122
:105140006779791E16D02246013399421268FBD145
:10515000D2F80080002FF1D02668002501E0344607
:105160003668214640460135FFF778FFAF42F6D852
:10517000BDE8F08120682146BDE8F041FFF76EBF31
:105180002DE9F8438846C788417907FB01F10439C6
:1051900002EB030C1E1D6145154638BFCD1AB74200
:1051A0000446B6FBF7F207FB126002D8013A246806
:1051B000FCD13E1AAE4228BF2E469DB14FF00009E9
:1051C0000430AD1B324608EB0901204410F042FDCB
:1051D000AF42B14424683E464FF0000028BF2E463F
:1051E000002DEDD1BDE8F88370B54468064620680F
:1051F0000D4618B908E02468206828B1B36829462C
:1052000098470028F7D120682860256070BD00BF4E
:105210004368186808B102681A60704743681868E4
:10522000704700BF4368186818B908E00346006873
:1052300028B18142FAD10A681A600120704770478C
:1052400010B568B90E4CA368012262703BB1D3E976
:1052500000230020A2609847A368002BF7D110BD5F
:105260000128FCD1064C2369A070002BF7D0D3E9AC
:1052700000230120226198472369002BF7D110BD3C
:10528000A009002038B50C4C237843B185250B4B81
:10529000D3F800340BB10123A370284638BD084869
:1052A0006360A3602361E36000F0B8F8054600F096
:1052B000C1F801232370EAE7A009002000000140A3
:1052C0004152000038B5154DAB78044673B110B1AA
:1052D0004368012098470020FFF7C0FCEB680133CA
:1052E000EB60BDE838400020FFF7C0BC03F0FF00D2
:1052F000FFF7B4FC64B12A6942B1944208D0134666
:1053000001E09C4204D01B68002BFAD122602C6182
:10531000EB68002BE2D100F0A3F8DFE7A009002042
:105320004FF08043D3F81804C0F30040704700BF2B
:1053300038B5154D6B78044673B110B14368002041
:1053400098470020FFF78AFC6B6801336B60BDE86B
:1053500038400020FFF78ABC03F0FF00FFF77EFC17
:1053600064B1AA6842B1944208D0134601E09C425D
:1053700004D01B68002BFAD12260AC606B68002B54
:10538000E2D100F07FF8DFE7A009002038B50B4C30
:105390000020FFF763FC6368013B6360656825B12B
:1053A000BDE838400020FFF761BC00F07BF8657075
:1053B000BDE838400020FFF759BC00BFA00900201D
:1053C00010B5074C23784BB9064B002808BF184688
:1053D00000F03EFB08B90123237010BD852010BDED
:1053E000B40900206487010010B5044600F060FB9A
:1053F00000F066FB204600F04DFB00F051FB002062
:1054000010BD00BF034653E8000F00EA010243E865
:10541000002C9CF0000FF6D1704700BF044A1379AE
:1054200023B901211060918018467047852070478C
:10543000B8090020084B1A68D20704D4C02283F8A8
:10544000002301221A60054A4FF080410123C1F870
:1054500018351370704700BF00E100E0B509002067
:105460004FF080430022C3F8042182B0D3F8042116
:105470000192019802210122C3F804139A6002B03C
:10548000704700BF4FF080430022C3F8002182B074
:10549000D3F80021019201990122C3F804231A6074
:1054A00002B070474FF0804201230021C2F8083358
:1054B00082B0C2F80011D2F8001101910199536035
:1054C000D2F80C3403F00113B3F1011FF8D0024BF2
:1054D00000225A7102B07047B809002010B54FF091
:1054E000804382B0D3F8002162B10021164AC3F88C
:1054F0000011D3F80011507900910121009CC3F8EC
:105500000813A8B14FF08043D3F80421CAB1002298
:10551000C3F80421D3F80421019202210A4A019818
:10552000C3F808131368012002B0BDE81040184703
:105530001368517198474FF08043D3F80421002A33
:10554000E5D102B010BD00BFB80900202DE9F04739
:10555000002384B0CDE902331C4AD2F8001101299E
:1055600000F03B821E46194BD3F80421012A00F0BB
:105570002582164BD3F80821012A00F01082134B24
:10558000D3F80C21012A00F0FB81104BD3F8102135
:10559000012A00F0E6810D4BD3F81421012A00F016
:1055A000D1810A4BD3F81821012A00F0B881074BAA
:1055B000D3F81C21012A0BD0044BD3F87C21012AFB
:1055C00000F02C8256BB04B0BDE8F08700600040BC
:1055D000D3F804231106EFD50022C3F81C21D3F819
:1055E0001C110091D3F87C110098012946F0800627
:1055F00014D1C3F87C21D3F87C3101934FF0A04241
:10560000019BD2F82015CD4B0291C2F82015D3F89A
:1056100020250392C3F8202546F00046C84F0024F9
:105620000125A30003F18043354203F5C0434FEA4F
:1056300045050BD0D3F8100557F82420D3F81015E2
:10564000C0F30520C1F3014102B190470134082C99
:10565000E7D1002EB7DABA4CB84E01254FF0A0477B
:1056600094F960305A1C4BD0C3F3C20101F110020F
:105670000DEB020103F0070211F808CC05FA02F263
:105680001CEA020FD9B203F03F0039D01F2800F204
:10569000368103464FF0A04909EB830205FA03F374
:1056A000D2F800C7D2F800E72EF4403EC2F800E777
:1056B00004EB000ECCF3014C9EF930E0D2F800A7C9
:1056C00054F82E80BCF1020F0CBF4FF4403E4FF453
:1056D000003E4EEA0A0EC2F800E7C9F82035B8F1DC
:1056E000000F0DD08909032900F08C81BCF1020F55
:1056F00000F08581BCF1030F02D1022900F0828104
:1057000094F96130581C4BD0C3F3C20101F110026F
:105710000DEB020103F0070211F808CC05FA02F2C2
:105720001CEA020FD9B203F03F0039D01F2800F263
:10573000EA8003464FF0A04909EB830205FA03F320
:10574000D2F800C7D2F800E72EF4403EC2F800E7D6
:1057500004EB000ECCF3014C9EF930E0D2F800A728
:1057600054F82E80BCF1020F0CBF4FF4403E4FF4B2
:10577000003E4EEA0A0EC2F800E7C9F82035B8F13B
:10578000000F0DD08909032900F04181BCF1020FFF
:1057900000F03A81BCF1030F02D1022900F03781F9
:1057A00094F96230591C4BD0C3F3C20101F11002CD
:1057B0000DEB020103F0070211F808CC05FA02F222
:1057C0001CEA020FD9B203F03F0039D01F2800F2C3
:1057D0009E8003464FF0A04909EB830205FA03F3CC
:1057E000D2F800C7D2F800E72EF4403EC2F800E736
:1057F00004EB000ECCF3014C9EF930E0D2F800A788
:1058000054F82E80BCF1020F0CBF4FF4403E4FF411
:10581000003E4EEA0A0EC2F800E7C9F82035B8F19A
:10582000000F0DD08909032900F0F680BCF1020FAA
:1058300000F0EF80BCF1030F02D1022900F0EC80F0
:1058400094F963305A1C4AD0C3F3C20101F110022B
:105850000DEB020103F0070211F808CC05FA02F281
:105860001CEA020FD9B203F03F0038D01F2852D8EB
:1058700003464FF0A04909EB830205FA03F3D2F87F
:1058800000C7D2F800E72EF4403EC2F800E704EB70
:10589000000ECCF3014C9EF930E0BCF1020F54F83D
:1058A0002E80D2F800E70CBF4FF4403A4FF4003A94
:1058B0004EEA0A0EC2F800E7C9F82035B8F1000F29
:1058C0000DD08909032900F09880BCF1020F00F087
:1058D0009180BCF1030F02D1022900F08E80D7F82D
:1058E00020350293C7F82035D6F8202503921343BC
:1058F000C6F820257FF4B4AE04B0BDE8F08703F00D
:105900001F03B146C8E603F01F03B14614E703F0D6
:105910001F03B14660E703F01F03B146ABE7D3F8BE
:10592000042350067FF543AE0022C3F81821D3F8B4
:1059300018310093009B46F0400638E60003005003
:10594000C0090020D3F8042394067FF52AAE002274
:10595000C3F81421D3F814310093009B46F02006BD
:105960001FE6D3F80423D5067FF515AE0022C3F851
:105970001021D3F810310093009B46F010060AE680
:10598000D3F8042317077FF500AE0022C3F80C21DB
:10599000D3F80C310093009B46F00806F5E5D3F8E8
:1059A000042352077FF5EBAD0022C3F80821D3F89A
:1059B00008310093009B46F00406E0E5D3F8042389
:1059C00091077FF5D6AD0022C3F80421D3F8043146
:1059D0000093009B46F00206CBE5D2F8046316F074
:1059E00001063FF4C0ADC2F80031D2F80031009397
:1059F000009BB8E501297FF472AFC0476FE701292A
:105A00007FF47EAEC0477BE601297FF4C9AEC04774
:105A1000C6E601297FF414AFC04711E70022C3F89E
:105A20007C21D3F87C3101934FF0A042019BD2F846
:105A30002015064B0291C2F82015D3F820250392B9
:105A4000C3F82025002E3FF406AEE5E50003005024
:105A50000E4A1378C3B903780D494FF0804CC3F355
:105A60004003CCF88035037803F00103CCF8783597
:105A70000B68DB0704D4C02381F8003301230B60DB
:105A8000012313700020704785207047380A0020DA
:105A900000E100E0014B02681A6070472C0A002008
:105AA0004FF080434FF46072C3F80423704700BF87
:105AB0004FF080434FF46072C3F80823704700BF73
:105AC000014B00221A6070472C0A002010B54FF0DD
:105AD000804386B0D3F80443620703D5D3F8082186
:105AE000002A62D1A30605D54FF08043D3F81421D4
:105AF000002A4FD1600605D54FF08043D3F8182116
:105B0000002A3BD1210604D54FF08043D3F81C2155
:105B10004ABBE20504D54FF08043D3F82021B2B947
:105B2000A30512D54FF08043D3F824216AB1002297
:105B3000C3F82421D3F82421214B0592059A1B6830
:105B4000022006B0BDE81040184706B010BD002284
:105B5000C3F820211A4AD3F8203104930120136896
:105B6000049A9847DCE70020C3F81C01144AD3F8D4
:105B70001C3103931368039A9847CAE70022C3F8BD
:105B80001821104AD3F81831029301201368029AA1
:105B90009847B7E70020C3F814010A4AD3F8143134
:105BA00001931368019A9847A4E70022C3F80821DB
:105BB000054AD3F8083100931368009A984791E793
:105BC0002C0A0020300A0020340A002008B5FFF714
:105BD0007DFFBDE80840FFF781BC00BF014B1B689B
:105BE000184700BF3C0A002030B44C68A34208D9D3
:105BF000002545600968016093420CD0002030BC4C
:105C0000704743600D6805600868E41A18449342C1
:105C10004C600860F2D1201E18BF012030BC7047D4
:105C200010B4D1E90034A24228BF2246C0E90032B4
:105C3000D1E90030801A1344C1E90030003818BFA0
:105C400001205DF8044B70474B689A4228BF1A4602
:105C500062B10B68C0E90032D1E90030801A134408
:105C6000C1E90030101E18BF012070471346F1E74C
:105C700010B50748074A0849126882B0002301247A
:105C80000370019401A80B70904702B010BD00BFD3
:105C9000890C00208C0C0020880C0020704700BF6D
:105CA00000B583B00D4B0E4900228DF80420D3F8C7
:105CB0002025ADF80620D3F8C0040A4A0968136805
:105CC000002814BF4FF001204FF48070034301A857
:105CD0001360884703B05DF804FB00BF007002400A
:105CE0008C0C0020840C0020F8B54B680B4F9A42B6
:105CF00028BF1A4615460C460646096838460FF076
:105D0000A9FFC6E90075D4E90030401B2B44C4E963
:105D10000030003818BF0120F8BD00BF440A002041
:105D200070B54B689A4228BF1A460D46144606467F
:105D300062B91346C6E90034D5E90032121B234488
:105D4000C5E90032201E18BF012070BD0968024855
:105D50000FF080FF004BEDE7440A00204FF0805326
:105D6000D3F83031082B13D0164B17499A7B0020FB
:105D7000032A087011D010B51C6882B094B1134B7F
:105D80000122DA64BFF36F8FBFF34F8F02B010BDF3
:105D90000E4B0022C3F81C2CE6E70D486FF480314F
:105DA000FFF730BB6FF480310948FFF72BFB094B3D
:105DB000ADF8064006221B688DF8042001A898471C
:105DC00002B010BD5C0B00207C0C00200070024073
:105DD000800C00208C0C002010B51E4BD3F8004422
:105DE000C3F8004482B0BFF36F8FBFF34F8FBFF390
:105DF0006F8FBFF34F8FE10508D5174B174A1B680C
:105E000002200121019001A811709847A20508D530
:105E1000114B124A1B6803200021019001A8117048
:105E20009847630514D50D4B1A788AB1094A0121A8
:105E300000201870C2F808159165BFF36F8FBFF38B
:105E40004F8F054B04221B6801920DEB020098470F
:105E500002B010BD007002408C0C0020890C0020A4
:105E600030B53F4B93F900201D78002A83B01ADB30
:105E70003C493D4A05F00F0314680A6810330120BD
:105E800000FA03F31A4323420A600AD1374B8DF814
:105E9000070006221B688DF804208DF8065001A823
:105EA000984703B030BD05F00F02314B2D4833F851
:105EB00012300168012403F18043944003F51C3340
:105EC00021430160196812B2E1B100211960BFF3EA
:105ED0006F8FBFF34F8F4FF08053802DD3F8303149
:105EE00021D0082B04BF234BC3F81C1C224B0021DC
:105EF0001970224B110103EB0212927B032A2AD064
:105F00005B5843B3184B1B681C40CAD1174B8DF824
:105F1000065006221B688DF804208DF8074001A862
:105F2000984703B030BD082B08BF124B124A08BF78
:105F3000C3F81C1C124B0021117093F89E20032AF9
:105F400003D0D3F89030002BDCD16FF0010106486C
:105F5000FFF758FAD6E7E1430348FFF753FAD1E7D2
:105F6000880C0020840C0020800C00208C0C002069
:105F7000C0870100007002407C0C0020EC0B002068
:105F80005C0B00202DE9F04FDFF840A2DFF84482DF
:105F9000DAF80040D8F80030234087B000F0A08045
:105FA00013F0012200F09F8092FAA2F4002C00F07E
:105FB0009F80B4FA84FB5D460F2D26D8DFF818A227
:105FC0000FFA8BF90AEB09164FEA09196BF07F07F4
:105FD000B2895AF80930716804A85C467FB29847C4
:105FE00008B94AF80900012303FA0BFB4FF080536C
:105FF0006FEA0B0BD3F83031082B05F0080935D1C7
:106000006D4B8222C3F81C2C30E0ABF11005ECB2D2
:106010006A4A009463B214F008004FEA041102EBDC
:10602000041601936CD1012303FA0BFB6FEA0B0BEF
:106030002546614B04F5947253F82290B289716839
:1060400037684B4604A8B847049A1AB1059A914597
:1060500000F28980DDE9003703F0080900B93060FB
:106060004FF08053D3F83031082BC9D0D8F8003026
:10607000059A03EA0B03C8F80030B3681344B36011
:106080004F4B0121002F197004994EDBB9F1000F1D
:106090005CD0494BAD00C3F8A017C3F8A427282350
:1060A0002B44DBB203F1804303F51C3301221A6059
:1060B000BFF36F8FBFF34F8F424A434B3E4913EA02
:1060C000270338BF134633F8142002F1804202F54B
:1060D0001C3202E0D1F8003113B91368002BF9D05B
:1060E00007B0BDE8F08F93FAA3F4002C7FF461AF02
:1060F0001023324E01934FF0FF3B2546009398E763
:106100002D4BD3F8C09419F4803F4DD05558B28927
:106110007168019F0023814604A8A847012303FA60
:106120000BFB6FEA0B0B254698E7B9F1000F34D152
:1061300005EB85039B0003F1804303F51C33AD00A1
:10614000C3F80016C3F804260423A9E705EB85036A
:106150009B0003F1804303F51C33AD00C3F8001727
:10616000C3F804279BE702245946B4731748FFF786
:1061700049F9009B8DF80E30154B8DF80F40062223
:106180001B688DF80C2003A89847DAF80040D8F86F
:10619000003023407FF404AFA2E7074BAD00C3F803
:1061A000A016C3F8A426CFE7012202FA0BFB6FEA80
:1061B0000B0B254642E700BF007002405C0B00203D
:1061C0007C0C0020AC870100C0870100800C0020FF
:1061D0008C0C0020840C0020EC0B002010B54FF03C
:1061E000805382B0D3F83031082B18D0164B174C9F
:1061F00093F83E200021032A217006D01B6B9BB12F
:1062000002B0BDE81040FFF7BDBE11486FF4002199
:10621000FFF7F8F82378002BF2D002B010BD0D4B39
:106220000022C3F81C2CE1E76FF400210848FFF7B7
:10623000E9F8094B062103221B688DF80410ADF81C
:10624000062001A89847E5E75C0B00207C0C0020A5
:10625000800C0020007002408C0C00204FF0805316
:10626000D3F83031082B0BD0124B134993F88E2002
:106270000020032A087002D0D3F880302BB1704779
:106280000E4B0022C3F81C2CEEE700B56FF08071B6
:1062900083B00B48FFF7B6F80A4B062108221B68AB
:1062A0008DF80410ADF8062001A8984703B05DF8FA
:1062B00004FB00BF5C0B00207C0C0020007002403F
:1062C000800C00208C0C00204FF08053D3F830312C
:1062D000082B10D0144B154993F81E210020032AD7
:1062E000087003D0D3F8103153B1704710486FF4E1
:1062F0008071FFF787B80F4B0022C3F81C2CE9E729
:1063000000B56FF4807183B00948FFF77BF80A4B42
:10631000062188221B688DF80410ADF8062001A81C
:10632000984703B05DF804FB5C0B00207C0C002058
:10633000800C0020007002408C0C00204FF0805335
:10634000D3F83031082B10D00A4B0B4993F89E201C
:106350000020032A087003D0D3F8903003B17047AF
:1063600006486FF00101FFF74DB8054B0022C3F856
:106370001C2CE9E75C0B00207C0C0020800C00202A
:10638000007002404FF08053D3F83031082B10D00A
:106390000A4B0B4993F8EE200020032A087003D023
:1063A000D3F8E03003B1704706486FF02001FFF7E3
:1063B00029B8054B0022C3F81C2CE9E75C0B002030
:1063C0007C0C0020800C0020007002404FF08053B5
:1063D000D3F83031082B10D00A4B0B4993F8FE202C
:1063E0000020032A087003D0D3F8F03003B17047BF
:1063F00006486FF04001FFF705B8054B0022C3F8CF
:106400001C2CE9E75C0B00207C0C0020800C002099
:10641000007002404FF08053D3F83031082B10D079
:106420000A4B0B4993F80E210020032A087003D071
:10643000D3F8003103B1704706486FF08001FEF7D2
:10644000E1BF054B0022C3F81C2CE9E75C0B0020E0
:106450007C0C0020800C0020007002404FF0805324
:10646000D3F83031082B10D00A4B0B4993F8AE20EB
:106470000020032A087003D0D3F8A03003B170477E
:1064800006486FF00201FEF7BDBF054B0022C3F8BE
:106490001C2CE9E75C0B00207C0C0020800C002009
:1064A000007002404FF08053D3F83031082B10D0E9
:1064B0000A4B0B4993F8BE200020032A087003D032
:1064C000D3F8B03003B1704706486FF00401FEF70F
:1064D00099BF054B0022C3F81C2CE9E75C0B002098
:1064E0007C0C0020800C0020007002404FF0805394
:1064F000D3F83031082B10D00A4B0B4993F8CE203B
:106500000020032A087003D0D3F8C03003B17047CD
:1065100006486FF00801FEF775BF054B0022C3F86F
:106520001C2CE9E75C0B00207C0C0020800C002078
:10653000007002404FF08053D3F83031082B10D058
:106540000A4B0B4993F8DE200020032A087003D081
:10655000D3F8D03003B1704706486FF01001FEF752
:1065600051BF054B0022C3F81C2CE9E75C0B00204F
:106570007C0C0020800C00200070024010B54FF011
:10658000805382B0D3F83031082B17D0164B174CFC
:106590009A7F0021032A217006D01B699BB102B0AB
:1065A000BDE81040FFF7EEBC11486FF40031FEF774
:1065B00029FF2378002BF2D002B010BD0D4B002232
:1065C000C3F81C2CE2E76FF400310948FEF71AFF0C
:1065D000094B062101221B688DF80410ADF8062036
:1065E00001A89847E5E700BF5C0B00207C0C002069
:1065F000800C0020007002408C0C002010B54FF081
:10660000805382B0D3F83031082B18D0174B184C78
:1066100093F84E200021032A217006D01B6C9BB1F9
:1066200002B0BDE81040FFF7ADBC12486FF4801116
:10663000FEF7E8FE2378002BF2D002B010BD0E4B1F
:106640000022C3F81C2CE1E76FF480110948FEF723
:10665000D9FE0A4B042206211B688DF80410ADF800
:1066600006200DEB02009847E4E700BF5C0B00201A
:106670007C0C0020800C0020007002408C0C00205C
:1066800010B54FF0805382B0D3F83031082B18D0BA
:10669000164B174C93F85E200021032A217006D078
:1066A0001B6D9BB102B0BDE81040FFF76BBC1148F9
:1066B0006FF40011FEF7A6FE2378002BF2D002B093
:1066C00010BD0D4B0022C3F81C2CE1E76FF4001144
:1066D0000848FEF797FE094B062105221B688DF836
:1066E0000410ADF8062001A89847E5E75C0B0020F0
:1066F0007C0C0020800C0020007002408C0C0020DC
:1067000010B54FF0805382B0D3F83031082B18D039
:10671000164B174C93F86E200021032A217006D0E7
:106720001B6E9BB102B0BDE81040FFF72BBC1148B7
:106730006FF48001FEF766FE2378002BF2D002B0E2
:1067400010BD0D4B0022C3F81C2CE1E76FF4800153
:106750000848FEF757FE094A062312688DF80430F0
:10676000ADF8063001A89047E6E700BF5C0B0020BB
:106770007C0C0020800C0020007002408C0C00205B
:1067800010B54FF0805382B0D3F83031082B18D0B9
:10679000164B174C93F87E200021032A217006D057
:1067A0001B6F9BB102B0BDE81040FFF7EBBB114877
:1067B0006FF40001FEF726FE2378002BF2D002B022
:1067C00010BD0D4B0022C3F81C2CE1E76FF4000153
:1067D0000848FEF717FE094B062107221B688DF8B3
:1067E0000410ADF8062001A89847E5E75C0B0020EF
:1067F0007C0C0020800C0020007002408C0C0020DB
:1068000010B54FF0805382B0D3F83031082B18D038
:10681000164B174C93F82E200021032A217006D026
:106820001B6A9BB102B0BDE81040FFF7ABBB11483B
:106830006FF48021FEF7E6FD2378002BF2D002B042
:1068400010BD0D4B0022C3F81C2CE1E76FF4802132
:106850000848FEF7D7FD094B062102221B688DF878
:106860000410ADF8062001A89847E5E75C0B00206E
:106870007C0C0020800C0020007002408C0C00205A
:106880002DE9F047564BD3F86C54C3F86C5482B0E2
:10689000BFF36F8FBFF34F8FDFF85891EDB1514FBA
:1068A000DFF854A1DFF8548195FAA5F4002C6FD0DD
:1068B000B4FA84F20F2A144629DD4B48DAF8003086
:1068C000012101FA02F2016813430A42CAF80030BA
:1068D00025EA02050AD0002DE6D199F80030002BF8
:1068E0007AD102B0BDE8F047FFF74CBBA4F110032A
:1068F000DBB2062001218DF804003A688DF80630DD
:106900008DF8071001A89047002DCDD1E5E738F8A4
:106910001210DAF8003001F1804101F51C31012636
:10692000964008683343CAF80030E0B100230B609A
:10693000BFF36F8FBFF34F8F002A32D04FF08051DB
:106940001001D1F83011082904BF2549C1F81C3CB9
:10695000264B002189F8001003EB0211897B0329E3
:1069600018D01B58B3B1204B1B6833400BD1062203
:1069700064F07F048DF804208DF806403A688DF8A5
:10698000073001A8904725EA0605002D8CD1A4E721
:106990001023AEE701219140C9431348FEF732FDB1
:1069A000E1E74FF08053D3F83031082B04BF0C4B94
:1069B000C3F81C2C0E4B002289F8002093F89E206F
:1069C000032A03D0D3F89030002BCCD16FF0010113
:1069D0000548FEF717FDC6E702B0BDE8F08700BF27
:1069E000007002408C0C0020800C0020EC0B00207A
:1069F0005C0B00207C0C0020840C0020C087010070
:106A00002DE9F04F644D654C95F900902F7823687F
:106A1000DFF890A1DFF89881DAF800106FEA090238
:106A200007F00F06DB43D20F9BB206EB02124FF0CA
:106A3000010B0B430BFA02F21342D8F8801485B015
:106A400015D1574F03AE21F07F01297055486FF0E3
:106A50000111FEF7D7FC23683A68052143F00103D2
:106A6000039130462360904705B0BDE8F08F0020C9
:106A70000191FEF7F3F8B9F1000F019922DBDAF882
:106A80000030494A06F110090BFA09F939EA030CFA
:106A90004FEA061002EB061B53D123EA0903CAF89A
:106AA0000030236842F800C023EA0903236003236F
:106AB0003B4F8BF80E3003AE00200191FEF7D6F865
:106AC0000199C0E73B0712D4802F54D006F2DA3385
:106AD0005B00C8F80038D8F80438D8F80428DBB2CE
